:020000040800F2
:10000000E01C00200D0200086502000865020008DF
:100010006502000865020008650200080000000093
:100020000000000000000000000000006502000861
:100030006502000800000000650200086502000873
:1000400065020008650200086502000865020008F4
:100050006502000865020008BD0900086502000885
:1000600065020008650200086502000865020008D4
:1000700065020008650200086502000865020008C4
:1000800065020008650200086502000865020008B4
:1000900065020008650200086502000865020008A4
:1000A0006502000865020008650200086502000894
:1000B0000D0900081D060008650200086502000819
:1000C0006502000865020008650200086502000874
:1000D0006502000865020008650200086502000864
:1000E000410C00086502000865020008650200086E
:1000F0006502000865020008650200086502000844
:100100006502000865020008650200086502000833
:100110006502000865020008650200086502000823
:100120006502000865020008650200086502000813
:100130006502000865020008650200086502000803
:1001400065020008650200086502000865020008F3
:1001500065020008650200086502000865020008E3
:1001600065020008650200086502000865020008D3
:1001700065020008650200086502000865020008C3
:10018000650200086502000890B484B000AF034621
:100190000A46FB711346BB710023FB60BB7903F079
:1001A00003039B000F2202FA03F3FB601649BB799D
:1001B0009B08DBB21846144ABB799B08DBB20233BA
:1001C00052F82320FB68DB431A40831C41F82320AC
:1001D0000D48BB799B08DBB21C460B4ABB799B08D8
:1001E000DBB2023352F82320F979BB7903F0030321
:1001F0009B0001FA03F31A43A31C40F82320103795
:10020000BD4690BC704700BF0038014080B582B049
:1002100000AF0F4B7B600F4B3B6007E03B681A1D44
:100220003A607A68111D796012681A603B680A4A60
:100230009342F3D309480A494FF000028842B8BFFD
:1002400040F8042BFADB00F007FE0837BD4680BDFE
:10025000EA27000800000020000000200000002025
:10026000DC14002080B400AFFEE700BF80B586B08C
:1002700000AF0820012100F0DDFE4FF48040012195
:1002800000F014FF00233B750023BB7501233B6185
:100290000123FB7503237B7507F1100311481946F1
:1002A00001F0A6F803200021FFF76EFF0123BB60D9
:1002B0000123BB7300233B7310237B7307F10803F7
:1002C000184601F05FFA06233B7100237B7100237F
:1002D000BB710123FB713B1D184601F009FB183768
:1002E000BD4680BD000C024080B586B000AF022044
:1002F000012100F09FFE4FF48040012100F0D6FE66
:1003000000233B750023BB754FF480533B610123F1
:10031000FB7503237B7507F110031248194601F0A2
:1003200067F801200C21FFF72FFF4FF48053BB60CB
:100330000123BB7300233B7310237B7307F1080376
:10034000184601F01FFA28233B7100237B7101231B
:10035000BB710123FB713B1D184601F0C9FA183728
:10036000BD4680BD0004024080B400AF114B0122A5
:10037000C3F860290F4B0122C3F86C290D4B0122F1
:10038000C3F87C280B4B0122C3F8502A094B0122E9
:10039000C3F86829074B0122C3F87429054B0122D1
:1003A000C3F88428034B0122C3F8582ABD465DF8E0
:1003B000047B70472000002080B582B000AF00238E
:1003C0003B602DE000237B6024E02B483B6879688C
:1003D0001A4652001A4493001A460B461B015B1A38
:1003E0001B011344034408331B68002B0FD0224821
:1003F0003B6879681A4652001A4493001A460B4625
:100400001B015B1A1B011344034401225A607B68E1
:1004100001337B607B68132BD7DD3B6801333B6086
:100420003B68132BCEDD00233B601CE000237B6088
:1004300013E011483B6879681A4652001A44930049
:100440001A460B461B015B1A1B0113440344083375
:1004500000221A607B6801337B607B68132BE8DD28
:100460003B6801333B603B68132BDFDDFFF77CFF0C
:100470000837BD4680BD00BF2000002090B486B084
:1004800000AF78600023FB6038E059487B68F9686A
:100490001A4652001A4493001A460B461B015B1A77
:1004A0001B011344034400221A6051487B68F96819
:1004B0001A4652001A4493001A460B461B015B1A57
:1004C0001B011344034400225A6049487B68F968C1
:1004D0001A4652001A4493001A460B461B015B1A37
:1004E0001B0113440344083300221A60414B1B686C
:1004F0005033404A1360FB680133FB60FB68132BE9
:10050000C3DD7B68013B7B616AE000233B6161E006
:100510007B69013B364839691A4652001A449300F8
:100520001A460B461B015B1A1B011344034418684F
:100530002F4C7B6939691A4652001A4493001A46B7
:100540000B461B015B1A1B011344234418607B6993
:10055000013B274839691A4652001A4493001A464B
:100560000B461B015B1A1B01134403445868204CC3
:100570007B6939691A4652001A4493001A460B46A1
:100580001B015B1A1B011344234458607B69013B28
:10059000174839691A4652001A4493001A460B4606
:1005A0001B015B1A1B011344034408331868104CE9
:1005B0007B6939691A4652001A4493001A460B4661
:1005C0001B015B1A1B0113442344083318603B6969
:1005D00001333B613B69132B9ADD7B69013B7B61F6
:1005E0007B69002B91DC1837BD4690BC704700BF7B
:1005F000200000200000002080B500AF01F082FD47
:100600001820302101F04AFE03480121002201F0A8
:1006100007FF01F0A9FD80BD58240008B0B584B0E3
:1006200000AFB748012101F09FFB0346002B00F00B
:100630006381B4484FF4005100F084FF1323BB6082
:100640000FE10023FB6063E0AF48BB68F9681A461E
:1006500052001A4493001A460B461B015B1A1B01F9
:10066000134403445B68012B00D14EE0BB68132B9D
:1006700014D1A548BB68F9681A4652001A44930081
:100680001A460B461B015B1A1B01134403441B68EB
:10069000012B03D19C48FFF78FFE36E0BB68013386
:1006A0009948F9681A4652001A4493001A460B46B4
:1006B0001B015B1A1B01134403445B68012B24D10B
:1006C0009148BB68F9681A4652001A4493001A46CA
:1006D0000B461B015B1A1B01134403441B68012BCF
:1006E00013D18948BB68F9681A4652001A4493002E
:1006F0001A460B461B015B1A1B01134403445B683B
:10070000002B02D18048FFF757FEFB680133FB60E6
:10071000FB68132B98DD0023FB609BE07A48BB68E5
:10072000F9681A4652001A4493001A460B461B01F8
:100730005B1A1B01134403441B68012B40F08780A4
:10074000BB6801337048F9681A4652001A44930096
:100750001A460B461B015B1A1B01134403441B681A
:10076000002B74D16848BB68F9681A4652001A44D5
:1007700093001A460B461B015B1A1B0113440344EA
:100780005B68002B63D16048BB68F9681A46520069
:100790001A4493001A460B461B015B1A1B011344B3
:1007A000034400221A60BB6801335748F9681A46AF
:1007B00052001A4493001A460B461B015B1A1B0198
:1007C0001344034401221A60BB6801334E48F968A0
:1007D0001A4652001A4493001A460B461B015B1A34
:1007E0001B011344034400225A60BB68581C464C4A
:1007F000BB68F9681A4652001A4493001A460B4621
:100800001B015B1A1B011344234408331C683E4D33
:10081000F96802465200024493001A460B461B0137
:100820005B1A1B0113442B4408331C603648BB6819
:10083000F9681A4652001A4493001A460B461B01E7
:100840005B1A1B0113440344083300221A60FB683F
:100850000133FB60FB68132B7FF760AFBB68013B84
:10086000BB60BB68002BBFF6ECAE0023BB6025E08D
:1008700000237B600023FB6014E02348BB68F96819
:100880001A4652001A4493001A460B461B015B1A83
:100890001B01134403441B687A6813447B60FB68A4
:1008A0000133FB60FB68132BE7DD7B68142B02D15F
:1008B000B868FFF7E3FDBB680133BB60BB68132B6F
:1008C000D6DD0023FB600EE00F49FA6813461B01DA
:1008D0009B1A1B010B445B68012B01D1FFF78CFEB7
:1008E000FB680133FB60FB68132BEDDD01F00AFCB4
:1008F0000348012101F062FA1037BD46B0BD00BFC8
:1009000000040040000C02402000002080B582B0AE
:1009100000AF4FF08040012101F026FA0346002B82
:1009200046D000233B603BE000237B6032E07B68E5
:10093000DAB23B68DBB21046194601F0AFFC1E4844
:100940003B6879681A4652001A4493001A460B46CF
:100950001B015B1A1B01134403441B68012B0BD1C1
:100960007B68DAB23B68DBB210461946012201F01F
:100970006BFB01F0F9FB0AE07B68DAB23B68DBB2A3
:1009800010461946002201F05FFB01F0EDFB7B6889
:1009900001337B607B68132BC9DD3B6801333B600F
:1009A0003B68132BC0DD4FF08040012101F006FAB7
:1009B0000837BD4680BD00BF2000002090B585B03F
:1009C00000AF012000F050FF0346002B00F02F8104
:1009D00001237B600023FB6002E0FB680133FB60C6
:1009E000FB68944A9342F8DD93484FF4004100F0CD
:1009F000A9FD0023BB6034E00023FB602BE08F489F
:100A0000BB68F9681A4652001A4493001A460B460E
:100A10001B015B1A1B011344034408331B68012BA1
:100A200016D1FB68591E8548BB681A4652001A4405
:100A300093001A460B461B015B1A1B011344034427
:100A40005B68012B02D0FB68002B01D100237B6087
:100A5000FB680133FB60FB68132BD0DDBB680133FF
:100A6000BB60BB68132BC7DD0023BB60D8E000234D
:100A7000FB60CEE07B68002B00F0C8806F48BB684D
:100A8000F9681A4652001A4493001A460B461B0195
:100A90005B1A1B011344034408331B68012B40F00D
:100AA000B5806648BB68F9681A4652001A4493003C
:100AB0001A460B461B015B1A1B01134403445B6877
:100AC000002B40F0A3805D48BB68F9681A465200CD
:100AD0001A4493001A460B461B015B1A1B01134470
:100AE000034408331B68012B40F09080FB68591EBB
:100AF000524CBB68F8681A4652001A4493001A46D2
:100B000003461B011B1A1B011344234418684B4C5A
:100B1000BB681A4652001A4493001A460B461B0142
:100B20005B1A1B01134423441860FB68591E434C95
:100B3000BB68F8681A4652001A4493001A460346E6
:100B40001B011B1A1B0113442344083318683B4C38
:100B5000BB681A4652001A4493001A460B461B0102
:100B60005B1A1B011344234408331860FB68591EA9
:100B7000324CBB68F8681A4652001A4493001A4671
:100B800003461B011B1A1B011344234458682B4CBA
:100B9000BB681A4652001A4493001A460B461B01C2
:100BA0005B1A1B011344234458602448BB68F9684E
:100BB0001A4652001A4493001A460B461B015B1A50
:100BC0001B0113440344083300221A601B48BB680E
:100BD000F9681A4652001A4493001A460B461B0144
:100BE0005B1A1B011344034400225A601348BB687C
:100BF000F9681A4652001A4493001A460B461B0124
:100C00005B1A1B011344034400221A60FB68013382
:100C1000FB60FB68132B7FF72DAFBB680133BB6014
:100C2000BB68132B7FF723AF012000F041FE143780
:100C3000BD4690BDFEFF3F00000C0240200000209A
:100C400090B585B000AF4FF4805000F00DFE034624
:100C5000002B00F0FB8001237B600023BB6034E0AD
:100C60000023FB602BE07B48BB68F9681A46520002
:100C70001A4493001A460B461B015B1A1B011344CE
:100C8000034408331B68012B16D1FB68591C7148BB
:100C9000BB681A4652001A4493001A460B461B01C1
:100CA0005B1A1B01134403445B68012B02D0FB68F1
:100CB000132B01D100237B60FB680133FB60FB68D1
:100CC000132BD0DDBB680133BB60BB68132BC7DDC2
:100CD0001323BB60B2E01323FB60A8E07B68002B0A
:100CE00000F0A2805B48BB68F9681A4652001A44BB
:100CF00093001A460B461B015B1A1B011344034465
:100D00005B68002B40F09080FB68591C514CBB681D
:100D1000F8681A4652001A4493001A4603461B010B
:100D20001B1A1B011344234418684A4CBB681A461B
:100D300052001A4493001A460B461B015B1A1B0112
:100D4000134423441860FB68591C424CBB68F86884
:100D50001A4652001A4493001A4603461B011B1AF6
:100D60001B0113442344083318683A4CBB681A46E5
:100D700052001A4493001A460B461B015B1A1B01D2
:100D80001344234408331860FB68591C314CBB687A
:100D9000F8681A4652001A4493001A4603461B018B
:100DA0001B1A1B011344234458682A4CBB681A467B
:100DB00052001A4493001A460B461B015B1A1B0192
:100DC0001344234458602348BB68F9681A4652000C
:100DD0001A4493001A460B461B015B1A1B0113446D
:100DE0000344083300221A601A48BB68F9681A469F
:100DF00052001A4493001A460B461B015B1A1B0152
:100E00001344034400225A601248BB68F9681A462A
:100E100052001A4493001A460B461B015B1A1B0131
:100E20001344034400221A60FB68013BFB60FB682B
:100E3000002BBFF653AFBB68013BBB60BB68002B08
:100E4000BFF649AF4FF4805000F032FD1437BD4675
:100E500090BD00BF2000002080B58CB000AF00F036
:100E600083FB4FF4C06000F031FD0820012100F049
:100E7000E1F80120012100F0FBF84FF4804001214E
:100E800000F014F90220012100F0F2F80023BB6207
:100E90003CE00023FB6233E06348BB6AF96A1A4610
:100EA00052001A4493001A460B461B015B1A1B01A1
:100EB0001344034400221A605B48BB6AF96A1A466D
:100EC00052001A4493001A460B461B015B1A1B0181
:100ED00013440344083300221A605348BB6AF96A7A
:100EE0001A4652001A4493001A460B461B015B1A1D
:100EF0001B011344034400225A60FB6A0133FB6266
:100F0000FB6A0E2BC8DDBB6A0133BB62BB6A132BC5
:100F1000BFDDFFF729FA40F247333B6240F2E73387
:100F2000BB830023BB840023FB8307F11C034FF02A
:100F30008040194600F03EFE42F2CF037B6141F251
:100F400087333B8200233B8300237B8207F110031E
:100F50003648194600F02EFE4FF08040012100F087
:100F600093FE3248012100F08FFE1C233B730023C7
:100F70007B730023BB730123FB7307F10C0318463B
:100F800000F0B6FC4FF08040012100F017FF4FF059
:100F900080400121012200F097FE1D233B720023B7
:100FA0007B720023BB720123FB7207F10803184612
:100FB00000F09EFC1D48012100F000FF1B480121AC
:100FC000012200F081FEFFF751F9FFF78DF94FF490
:100FD00070433B6001233B710023BB7101237B7194
:100FE0000023FB713B461248194600F001FA3820F5
:100FF00000F0CEFF4FF08040012100F089FE034653
:10100000002B04D04FF08040012100F09DFE0748E6
:10101000012100F07DFE0346002B03D0034801218F
:1010200000F092FEE6E700BF200000200004004030
:10103000000C024080B483B000AF78600B46FB70B8
:10104000FB78002B06D00949084B1A6B7B681343C9
:101050000B6306E00549054B1A6B7B68DB431340C5
:101060000B630C37BD465DF8047B704700380240C7
:1010700080B483B000AF78600B46FB70FB78002B28
:1010800006D00949084B1A6C7B6813430B6406E0D1
:101090000549054B1A6C7B68DB4313400B640C3726
:1010A000BD465DF8047B70470038024080B483B0D1
:1010B00000AF78600B46FB70FB78002B06D0094927
:1010C000084B5A6C7B6813434B6406E00549054B9B
:1010D0005A6C7B68DB4313404B640C37BD465DF8AC
:1010E000047B70470038024080B584B002AF78605E
:1010F0000B46FB707B68194A93420BD1FA784FF488
:101100008273009300230193144811460022202388
:1011100000F036F87B68124A93420BD1FA784FF40C
:1011200082730093002301930D481146002220236F
:1011300000F026F87B680B4A93420BD1FA784FF403
:101140008273009300230193064811460022202356
:1011500000F016F80837BD4680BD00BF00300140E2
:1011600000380040003C004080B483B000AF78609D
:101170000B467B800C37BD465DF8047B704700BF93
:1011800080B588B000AF7860084611461A4603461D
:10119000FB700B46BB7013463B8007F10C031846EF
:1011A00000F0CCFA7B68394A93420BD1384A384B6D
:1011B0005B6C43F480535364FB78184600F06EF880
:1011C00000233B827B68334A93420BD1304A304B39
:1011D0001B6C43F480431364FB78184600F08EF8D0
:1011E00000233B827B682C4A93420BD1284A284B30
:1011F0001B6C43F400431364FB78184600F0C8F8F6
:1012000000233B823B883B830023BB81BB8D7B83D8
:101210003B8DFB814FF40073FB82BB78002B04D124
:1012200000237B820023BB8216E0BB78012B04D114
:1012300000237B820123BB820EE0BB78022B04D10A
:1012400002237B820023BB8206E0BB78032B03D101
:1012500002237B820123BB827B681B889BB223F025
:1012600040039AB27B681A8007F10C03786819462C
:1012700000F020FA7B681B889BB243F040039AB2CF
:101280007B681A802037BD4680BD00BF003001401A
:101290000038024000380040003C004080B584B077
:1012A00002AF0346FB71FB79002B09D103230093A6
:1012B000052301930E48E0210022002300F078FB73
:1012C000FB79012B09D103230093052301930948DE
:1012D00038210022002300F06BFBFB79032B03D1A4
:1012E00005480521FFF740FF0837BD4680BD00BF18
:1012F00000000240000402400030014080B584B08C
:1013000002AF0346FB71FB79002B14D1032300933A
:10131000052301931A484FF480610022002300F056
:1013200047FB032300930523019316480C21002259
:10133000002300F03DFBFB79012B0AD1032300932E
:10134000052301930E484FF460410022002300F072
:101350002FFBFB79022B09D1032300930523019373
:1013600009480D210022002300F022FBFB79032B0A
:1013700003D106480521FFF7F7FE0837BD4680BDBB
:1013800000040240000802400020024000380040F3
:1013900080B584B002AF0346FB71FB79002B09D105
:1013A00003230093062301930E48382100220023D3
:1013B00000F0FEFAFB79012B0AD1032300930623E8
:1013C000019309484FF4E0510022002300F0F0FAA5
:1013D000FB79032B03D105480621FFF7C5FE08372B
:1013E000BD4680BD0004024000080240003C0040B1
:1013F00080B487B000AF7860396000237B61002340
:101400003B610023FB6000237B6176E07B69012266
:1014100002FA03F33B613B681A683B691340FB60C7
:10142000FA683B699A4265D17B681A687B695B0000
:10143000194603238B40DB431A407B681A607B68A4
:101440001A683B681B7919467B695B0001FA03F354
:101450001A437B681A603B681B79012B03D03B68F9
:101460001B79022B2ED17B689A687B695B00194639
:1014700003238B40DB431A407B689A607B689A6841
:101480003B685B7919467B695B0001FA03F31A43F9
:101490007B689A607B685A687B699BB21946012316
:1014A0008B40DB431A407B685A607B685B683A6814
:1014B000927911467A6992B201FA02F292B21A4313
:1014C0007B685A607B68DA687B699BB25B000321AA
:1014D00001FA03F3DB431A407B68DA607B68DA6861
:1014E0003B68DB7919467B695B0001FA03F31A4319
:1014F0007B68DA607B6901337B617B690F2B85D95F
:101500001C37BD465DF8047B704700BF80B483B0D4
:1015100000AF78600B467B807B687A881A830C3733
:10152000BD465DF8047B704780B483B000AF78603F
:101530000B467B807B687A885A830C37BD465DF802
:10154000047B704780B483B000AF78600B467B802B
:101550007B685A697B885A407B685A610C37BD4664
:101560005DF8047B704700BF80B500AF114A114B96
:101570001B6843F0010313600E4B00229A600D4A72
:101580000C4B1B6823F0847323F480331360094BE6
:10159000094A5A60074A074B1B6823F480231360EB
:1015A000044B0022DA6000F00BF8044B4FF00062AD
:1015B0009A6080BD003802401030002400ED00E049
:1015C00080B483B000AF00237B6000233B60354ACA
:1015D000344B1B6843F480331360324B1B6803F4B5
:1015E00000333B607B6801337B603B68002B03D199
:1015F0007B68B3F5A06FF0D12A4B1B6803F400336E
:10160000002B02D001233B6001E000233B603B68DC
:10161000012B42D1234A234B1B6C43F080531364AC
:10162000214A214B1B6843F4804313601D4A1D4B24
:101630009B6893601B4A1B4B9B6843F40043936079
:10164000184A184B9B6843F4A0539360154B174AF4
:101650005A60144A134B1B6843F08073136000BF39
:10166000104B1B6803F00073002BF9D0104B40F2B5
:1016700005621A600B4A0B4B9B6823F003039360CF
:10168000084A084B9B6843F00203936000BF054B78
:101690009B6803F00C03082BF9D10C37BD465DF8AD
:1016A000047B704700380240007000400854400737
:1016B000003C024080B485B000AF78603960002300
:1016C000FB817B681B88FB81FB8903F44153FB8111
:1016D0003B681A883B685B8813439AB23B689B88D7
:1016E00013439AB23B68DB8813439AB23B681B8969
:1016F00013439AB23B685B8913439AB23B689B8958
:1017000013439AB23B68DB8913439AB2FB891343B4
:10171000FB817B68FA891A807B689B8B9BB223F4E0
:1017200000639AB27B689A833B681A8A7B681A8244
:101730001437BD465DF8047B704700BF80B483B0AA
:1017400000AF78607B6800221A807B6800225A8094
:101750007B6800229A807B680022DA807B68002206
:101760001A817B6800225A817B6800229A817B68FB
:101770000022DA817B6807221A820C37BD465DF8A9
:10178000047B704780B485B000AF78600023FB60B5
:10179000344BFB607B689B79002B4FD03149314B38
:1017A0001A687B681B68DB4313400B602D492D4B87
:1017B0005A687B681B68DB4313404B607B681B796E
:1017C0001A46FB681344FB60FB68FA6811687A6884
:1017D00012680A431A602349224B9A687B681B6887
:1017E000DB4313408B601F491E4BDA687B681B6824
:1017F000DB431340CB607B685B79102B0ED119491A
:10180000184B9A687B681B6813438B601549154B0E
:10181000DA687B681B681343CB601DE0114BFB60EB
:101820007B685B791A46FB681344FB60FB68FA68C7
:1018300011687A6812680A431A600DE07B681B79A8
:101840001A46FB681344FB60FB68FA6811687A6803
:101850001268D2430A401A601437BD465DF8047B13
:10186000704700BF003C014080B485B000AF786095
:101870000023FB730023BB600C4B1A687B6813408A
:10188000BB600A4B5A697B681340002B05D0BB68CC
:10189000002B02D00123FB7301E00023FB73FB7BD1
:1018A00018461437BD465DF8047B7047003C014084
:1018B00080B483B000AF7860034A7B6853610C3713
:1018C000BD465DF8047B7047003C014080B483B0A6
:1018D00000AF7860054A7B6843F0BF6343F4003390
:1018E000D3600C37BD465DF8047B704700ED00E027
:1018F00080B485B000AF78600023FB730023BB7316
:101900000F237B737B68DB78002B38D0264BDB689A
:10191000DB4303F4E0631B0AFB73FB7BC3F10403AB
:10192000BB737A7BFB7B42FA03F37B737B685B7848
:101930001A46BB7B02FA03F3FB737B689A787B7BC6
:101940001340DAB2FB7B1343FB73FB7B1B01FB737E
:10195000164A7B681B781344FA7B83F80023134AEA
:101960007B681B785B09DBB218467B681B7803F049
:101970001F03012101FA03F342F820300FE00B4965
:101980007B681B785B09DBB218467B681B7803F029
:101990001F0301229A4000F1200341F8232014374D
:1019A000BD465DF8047B704700ED00E000E100E01B
:1019B00090B587B002AF7860084611461A460346D4
:1019C0007B800B467B7013463B707B88002B00D1DD
:1019D0003EE0786800F052F80023FB6028E07A8847
:1019E000FB6842FA03F303F00103002B00D11CE073
:1019F000FB68DA08FB68D9087B68083153F82130A6
:101A0000F96801F00701890008460F218140C943A8
:101A10000B4097F82410F86800F007008000814020
:101A200019437B68083243F82210FB680133FB60DE
:101A3000FB680F2BD3D97A887C783B78009397F892
:101A400020300193786811460222234600F02CF8DA
:101A50001437BD4690BD00BF80B483B000AF78603E
:101A60007B6803F13F4303F57E039B0A9BB2184654
:101A70000C37BD465DF8047B704700BF80B582B06F
:101A800000AF78607868FFF7E7FF03461A46012346
:101A900003FA02F1034A034B1B6B0B431363083732
:101AA000BD4680BD0038024080B584B000AF78608C
:101AB000084611461A4603467B800B467B70134648
:101AC0003B707868FFF7C8FF0346BB730023FB73C6
:101AD00067E07A88FB7B42FA03F303F00103002BF3
:101AE00000D15BE0BB7BBA7B314931F8122090B268
:101AF000FA7B012101FA02F292B201460A4392B244
:101B000091B22B4A22F813107B68DB68FA7B5200F3
:101B1000032101FA02F2D2431340397EFA7B5200CC
:101B200001FA02F21A437B68DA607B681A68FB7B71
:101B30005B00032101FA03F3DB4313407978FA7B5E
:101B4000520001FA02F21A437B681A607B78012B7B
:101B500002D07B78022B21D17B685B68FA7B012164
:101B600001FA02F292B2D24313403978FA7B01FAB9
:101B700002F292B21A437B685A607B689A68FB7BD8
:101B80005B00032101FA03F3DB431340397FFA7B47
:101B9000520001FA02F21A437B689A60FB7B013320
:101BA000FB73FB7B0F2B94D91037BD4680BD00BF64
:101BB0000400002080B485B000AF78603960002355
:101BC000FB817B681B88FB817B68284A934213D08A
:101BD0007B68274A93420FD07B68B3F1804F0BD0CC
:101BE0007B68244A934207D07B68234A934203D000
:101BF0007B68224A934208D1FB8923F07003FB8162
:101C00003B685A88FB891343FB817B681C4A9342DB
:101C10000CD07B681B4A934208D0FB8923F44073A5
:101C2000FB813B681A89FB891343FB817B68FA8936
:101C30001A803B685A687B68DA623B681A887B685E
:101C40001A857B68094A934203D07B68084A93420D
:101C500004D13B689B7A9AB27B681A867B68012222
:101C60009A821437BD465DF8047B7047000001403E
:101C7000000401400004004000080040000C004047
:101C8000001000400014004080B483B000AF7860C2
:101C90000B46FB70FB78002B08D07B681B889BB23F
:101CA00043F001039AB27B681A8007E07B681B88C7
:101CB0009BB223F001039AB27B681A800C37BD46B1
:101CC0005DF8047B704700BF80B483B000AF7860DC
:101CD0000B467B8013467B707B78002B08D07B689B
:101CE0009B899AB27B8813439AB27B689A8109E0F8
:101CF0007B689B899AB27B88DB439BB213409AB284
:101D00007B689A810C37BD465DF8047B704700BF45
:101D100080B485B000AF78600B467B800023FB73F6
:101D20007B681B8A9AB27B8813409BB2002B02D03F
:101D30000123FB7301E00023FB73FB7B1846143780
:101D4000BD465DF8047B704780B483B000AF786017
:101D50000B467B807B88DB439AB27B681A820C3708
:101D6000BD465DF8047B704780B485B000AF7860F5
:101D70000B467B800023FB730023BB8100237B8108
:101D80007B681B8A9AB27B881340BB817B689B89E6
:101D90009AB27B8813407B81BB89002B05D07B895D
:101DA000002B02D00123FB7301E00023FB73FB7BBC
:101DB00018461437BD465DF8047B704780B483B085
:101DC00000AF78600B467B807B88DB439AB27B68F0
:101DD0001A820C37BD465DF8047B704780B483B02F
:101DE00000AF78600B46FB707B681B889BB203F0EA
:101DF0004003002B01D1002325E000BF7B681B8935
:101E00009BB203F00303002BF8D07B681B899BB2C5
:101E100003F08003002BF1D1FB789AB27B689A81A2
:101E200000BF7B681B899BB203F00303002BF8D033
:101E30007B681B899BB203F08003002BF1D17B6888
:101E40009B899BB2DBB218460C37BD465DF8047B1C
:101E5000704700BF80B582B000AF04200121FFF7BA
:101E6000E9F80023BB710023FB7103237B7101237D
:101E70003B714FF400433B603B4612481946FFF765
:101E8000B7FA4FF480433B603B460E481946FFF7D4
:101E9000AFFA4FF400533B603B460A481946FFF740
:101EA000A7FA08484FF40041FFF730FB05484FF40C
:101EB0000051FFF72BFB04480021FFF715F9083705
:101EC000BD4680BD000802400038004080B582B0A9
:101ED00000AF0346FB7109484FF40051FFF724FBA4
:101EE000FB7907481946FFF779FF04484FF4005182
:101EF000FFF70CFB0837BD4680BD00BF000802405D
:101F00000038004080B582B000AF03460A46FB713E
:101F10001346BB71FB79012B02D0022B0FD01DE0C1
:101F2000BB79002B05D00F484FF48041FFF7EEFA44
:101F300014E00C484FF48041FFF7F6FA0EE0BB794D
:101F4000002B05D007484FF40041FFF7DFFA04E00B
:101F500004484FF40041FFF7E7FA00BF0837BD46D9
:101F600080BD00BF0008024080B485B000AF78603B
:101F70000023FB6002E0FB680133FB60FA687B68CA
:101F80009A42F8D31437BD465DF8047B704700BF12
:101F900080B582B000AF0346FB71FFF75BFF022004
:101FA0000021FFF7AFFF42F21070FFF7DDFF0220C4
:101FB0000121FFF7A7FF0020212100F025F80020D4
:101FC000142100F021F8FB795BB2002B01DA7F23AA
:101FD000FB71FB7963F07F03DBB20020194600F050
:101FE00013F80020202100F00FF800200C2100F051
:101FF0000BF800F0ADF800200C2100F005F800F01F
:1020000081F80837BD4680BD80B582B000AF034679
:102010000A46FB711346BB71FB79002B07D0012BDD
:1020200000D009E001200121FFF76CFF04E001204E
:102030000021FFF767FF00BFBB791846FFF746FF97
:102040000837BD4680BD00BF80B582B000AF0346F3
:10205000FB710B46BB7113467B71FB79532B00D987
:102060004BE0BB792F2B00D947E07B79002B1ED0AA
:10207000FA79BB79DB08D8B20146542303FB01F39C
:102080001344F979542202FB00F20A441C498A5C89
:10209000D0B2BA7902F00702012101FA02F2D2B2FB
:1020A00001460A43D2B2D1B2154AD1541FE0FA799F
:1020B000BB79DB08D8B20146542303FB01F3134478
:1020C000F979542202FB00F20A440D498A5CD0B22D
:1020D000BA7902F00702012101FA02F2D2B2D24328
:1020E000D2B201460A40D2B2D1B2054AD154F879EF
:1020F000B979FA79BB7900F095F80837BD4680BD0B
:10210000E412002080B582B000AF00F021F8002377
:102110007B6007E00D4A7B68134400221A707B68DD
:1021200001337B607B68B3F5FC7FF3D30020002193
:1021300000F0B4F80020002153222F2300F072F8A1
:1021400000F012F80837BD4680BD00BFE412002041
:1021500080B500AF00208021FFF756FF002040210E
:10216000FFF752FF80BD00BF80B582B000AF0023F3
:10217000FB713BE0264B1B781A46FB790133DB00F1
:102180009A4200DD2FE0FB79DB00224A127893426D
:1021900000DD2EE0FB7943F04003DBB2002019465E
:1021A000FFF732FF1C4B1B7863F07F03DBB200208C
:1021B0001946FFF729FF184B1B78BB710EE0FB791E
:1021C000542202FB03F2BB791344144AD35C01206E
:1021D0001946FFF719FFBB790133BB71104B1B7810
:1021E000BA799A42EBD9FB790133FB71FB79052B64
:1021F000C0D9094B53221A70094B00221A70044BA4
:102200002F221A70034B00221A700837BD4680BD7A
:102210001C0000201D0000201A000020E4120020F5
:102220001B00002090B482B000AF0446084611465F
:102230001A462346FB710346BB710B467B7113465E
:102240003B71124B1B78FA799A4202D20F4AFB7902
:1022500013700F4B1B787A799A4202D90C4A7B791A
:1022600013700C4B1B78BA799A4202D2094ABB7997
:102270001370094B1B783A799A4202D9064A3B7986
:1022800013700837BD4690BC704700BF1A0000208D
:102290001B0000201C0000201D00002080B483B023
:1022A00000AF03460A46FB711346BB71054AFB7932
:1022B0001370054ABB7913700C37BD465DF8047B7B
:1022C000704700BFE1120020E012002080B584B00A
:1022D00000AF0346FB710B46BB7113467B717B79E4
:1022E000012B04D10423BB730623FB7303E00623F5
:1022F000BB730823FB73464B1B781A46BB7B134406
:10230000542B09DD434B1A78FB7B1344DAB2414B63
:102310001A703F4B00221A7000237B736AE0FB792E
:102320001F2B1CD97B79012B0CD1FB79A3F1200247
:10233000797B394813465B0013440B4403441B78F4
:102340003B730CE0FB79A3F12002797B3348134601
:102350005B0013445B000B4403441B783B733B7BE3
:10236000002B06D1FB79002B03D0FB79202B00D06A
:102370003DE00023FB7230E0BB79012B15D1244BEB
:102380001878244B1A78FB7A1344D9B23A7BFB7A3B
:1023900042FA03F303F00103002B14BF01230023CF
:1023A000DBB21A46FFF750FE14E0194B1878194BB0
:1023B0001A78FB7A1344D9B23A7BFB7A42FA03F3D8
:1023C00003F00103002B0CBF01230023DBB21A46EC
:1023D000FFF73AFEFB7A0133FB72FA7AFB7B9A42F3
:1023E000CAD30B4B1B780133DAB2094B1A707B7BD3
:1023F00001337B737A7BBB7B013B9A428FDB044BBF
:102400001B780133DAB2024B1A701037BD4680BD1B
:10241000E1120020E0120020AC260008642400082D
:1024200080B582B000AF78600B46FB701346BB707E
:102430000AE07B685A1C7A601978FA78BB780846FB
:1024400011461A46FFF742FF7B681B78002BF0D13C
:102450000837BD4680BD00BF4B4F4E49454320471E
:102460005259000000000000000000002F00000092
:10247000000700070000147F147F1400242A7F2A1D
:102480001200323408162600364955225000000545
:1024900003000000001C224100000041221C00003B
:1024A00014083E08140008083E08080000005030D8
:1024B00000001010101010000060600000002010DC
:1024C000080402003E5149453E0000427F400000A2
:1024D0004261514946002141454B31001814127F99
:1024E00010002745454539003C4A494930000171F3
:1024F00009050300364949493600064949291E00A5
:102500000036360000000056360000000814224154
:1025100000001414141414000041221408000201D5
:1025200051090600324959513E007E1111117E00B9
:102530007F49494936003E41414122007F414122C5
:102540001C007F49494941007F09090901003E41BA
:1025500049497A007F0808087F0000417F41000058
:102560002040413F01007F08142241007F4040404D
:1025700040007F020C027F007F0408107F003E4174
:1025800041413E007F09090906003E4151215E009C
:102590007F091929460046494949310001017F0157
:1025A00001003F4040403F001F2040201F003F40AF
:1025B00038403F00631408146300070870080700E0
:1025C000615149454300007F41410000552A552A89
:1025D00055000041417F0000040201020400404018
:1025E0004040400000010204000020545454780090
:1025F0007F48444438003844444420003844444828
:102600007F00385454541800087E090102000C520F
:1026100052523E007F080404780000447D400000D0
:102620002040443D00007F102844000000417F40CE
:1026300000007C04180478007C0804047800384406
:10264000444438007C1414140800081414187C0046
:102650007C0804040800485454542000043F4440BB
:1026600020003C4040207C001C2040201C003C40BE
:1026700030403C004428102844000C5050503C008E
:102680004464544C4400007F3E1C0800081C3E7FFC
:102690000000087C7E7C0800103E7E3E10003E3E1E
:1026A0003E3E3E00007F3E1C08000000000000008F
:1026B00017000300031F0A1F0A1F050904120F1742
:1026C0001C000300000E11110E00050205040E048B
:1026D0001008000404040010000804021F111F1257
:1026E0001F101D151711151F07041F17151D1F1586
:1026F0001D01011F1F151F17151F000A00100A00DA
:10270000040A110A0A0A110A040115030E15161EFD
:10271000051E1F150A0E11111F110E1F15151F057D
:10272000050E151D1F041F111F1108100F1F041B7C
:102730001F10101F061F1F0E1F0E110E1F05020E69
:10274000111E1F0D16121509011F010F100F07187A
:10275000071F0C1F1B041B031C031915131F11005B
:1027600002040800111F0201021010100102001AD9
:10277000161C1F120C0C12120C121F0C1A16041E1F
:102780000506150F1F021C001D0010100D1F0C1256
:10279000111F101E0E1E1E021C0C120C1E0A040419
:1027A0000A1E1C0202141E0A021F120E101E0E1018
:1027B0000E1E1C1E120C1202141E1A1E16041B11D1
:1027C000001F00111B040406021F1F1F0000000051
:1027D00000000000000000000000000000000000F9
:0A27E00000000000000000000000EF
:0400000508000000EF
:00000001FF
