:020000040800F2
:10000000805E002089010008E1010008E10100088C
:10001000E1010008E1010008E10100080000000022
:10002000000000000000000000000000E1010008E6
:10003000E101000800000000E1010008E101000802
:10004000E1010008E1010008E1010008E101000808
:10005000E1010008E1010008E1010008E1010008F8
:10006000E1010008E1010008E1010008E1010008E8
:10007000E1010008E1010008E1010008E1010008D8
:10008000E1010008E1010008E1010008E1010008C8
:10009000E1010008E1010008E1010008E1010008B8
:1000A000E1010008E1010008E1010008E1010008A8
:1000B0005D07000889040008E1010008E10100086B
:1000C000E1010008E1010008E1010008E101000888
:1000D000E1010008E1010008E1010008E101000878
:1000E000E1010008E1010008E1010008E101000868
:1000F000E1010008E1010008E1010008E101000858
:10010000E1010008E1010008E1010008E101000847
:10011000E1010008E1010008E1010008E101000837
:10012000E1010008E1010008E1010008E101000827
:10013000E1010008E1010008E1010008E101000817
:10014000E1010008E1010008E1010008E101000807
:10015000E1010008E1010008E1010008E1010008F7
:10016000E1010008E1010008E1010008E1010008E7
:10017000E1010008E1010008E1010008E1010008D7
:10018000E1010008E101000880B582B000AF0F4B2B
:100190007B600F4B3B6007E03B681A1D3A607A6852
:1001A000111D796012681A603B680A4A9342F3D3C2
:1001B00009480A494FF000028842B8BF40F8042BB2
:1001C000FADB00F01DFB0837BD4680BD9C1A000815
:1001D0000000002000000020000000207C560020CD
:1001E00080B400AFFEE700BF80B483B000AF00234F
:1001F0003B602BE000237B6022E029483A68796865
:1002000013465B0013449B004FF4347202FB01F26F
:100210001344034408331B68002B0ED020483A686F
:10022000796813465B0013449B004FF4347202FB61
:1002300001F21344034401225A607B6801337B605E
:100240007B681D2BD9DD3B6801333B603B683B2B52
:10025000D0DD00233B601BE000237B6012E01048F0
:100260003A68796813465B0013449B004FF434727C
:1002700002FB01F213440344083300221A607B6836
:1002800001337B607B681D2BE9DD3B6801333B60FC
:100290003B683B2BE0DD0C37BD465DF8047B7047C7
:1002A0002000002080B400AF194B03F528533033F1
:1002B00001221A60164B03F528533C3301221A60C1
:1002C000134B03F51D532C3301221A60104B03F519
:1002D000345301221A600E4B03F5285338330122A0
:1002E0001A600B4B03F52953043301221A60084BA3
:1002F00003F51D53343301221A60054B03F53453C3
:10030000083301221A60BD465DF8047B704700BFC8
:100310002000002090B486B000AF78600023FB601E
:1003200035E054487A68F96813465B0013449B0033
:100330004FF4347202FB01F21344034400221A60AA
:100340004C487A68F96813465B0013449B004FF4ED
:10035000347202FB01F21344034400225A60454800
:100360007A68F96813465B0013449B004FF43472BB
:1003700002FB01F213440344083300221A603E4B8F
:100380001B6878333C4A1360FB680133FB60FB68F1
:100390001D2BC6DD7B68013B7B6164E000233B6174
:1003A0005BE07B695A1E3348396913465B0013448E
:1003B0009B004FF4347202FB01F2134403441968AA
:1003C0002C4C7A69386913465B0013449B004FF448
:1003D000347202FB00F21344234419607B695A1EF5
:1003E0002448396913465B0013449B004FF4347270
:1003F00002FB01F21344034459681E4C7A693869C0
:1004000013465B0013449B004FF4347202FB00F26E
:100410001344234459607B695A1E164839691346B0
:100420005B0013449B004FF4347202FB01F213444F
:100430000344083319680F4C7A69386913465B0026
:1004400013449B004FF4347202FB00F21344234424
:10045000083319603B6901333B613B691D2BA0DD0B
:100460007B69013B7B617B69002B97DC1837BD46BC
:1004700090BC7047200000200000002080B400AF36
:10048000BD465DF8047B704790B585B000AFB048BD
:10049000012101F051F80346002B00F05581AD48D1
:1004A0004FF4004100F006FD3B23BB6004E1002354
:1004B000FB6062E0A848BA68F96813465B00134421
:1004C0009B004FF4347202FB01F2134403445B6857
:1004D000012B00D14EE0BB683B2B15D19E48BA687A
:1004E000F96813465B0013449B004FF4347202FB1F
:1004F00001F2134403441B68012B05D19648FFF712
:1005000073FEFFF7CFFE35E0BB685A1C9248F968CE
:1005100013465B0013449B004FF4347202FB01F25C
:10052000134403445B68012B24D18B48BA68F968F3
:1005300013465B0013449B004FF4347202FB01F23C
:10054000134403441B68012B14D18348BA68F9682B
:1005500013465B0013449B004FF4347202FB01F21C
:10056000134403445B68002B04D17B48FFF73CFE37
:10057000FFF798FEFB680133FB60FB681D2B99DDDC
:100580000023FB6091E07448BA68F96813465B0089
:1005900013449B004FF4347202FB01F213440344F2
:1005A0001B68012B7ED1BB685A1C6B48F968134647
:1005B0005B0013449B004FF4347202FB01F21344BE
:1005C00003441B68002B6DD16348BA68F968134671
:1005D0005B0013449B004FF4347202FB01F213449E
:1005E00003445B68002B5DD15B48BA68F968134629
:1005F0005B0013449B004FF4347202FB01F213447E
:10060000034400221A60BB685A1C5348F968134619
:100610005B0013449B004FF4347202FB01F213445D
:10062000034401221A60BB685A1C4B48F968134600
:100630005B0013449B004FF4347202FB01F213443D
:10064000034400225A60BB685A1C434CB968F868DE
:100650000B465B000B449B004FF4347101FB00F12F
:100660000B442344083319683B4CF86813465B007D
:1006700013449B004FF4347202FB00F213442344F2
:10068000083319603448BA68F96813465B001344AC
:100690009B004FF4347202FB01F21344034408330D
:1006A00000221A60FB680133FB60FB681D2B7FF79B
:1006B0006AAFBB68013BBB60BB68002BBFF6F7AEFF
:1006C0000023BB6024E000237B600023FB6013E079
:1006D0002148BA68F96813465B0013449B004FF445
:1006E000347202FB01F2134403441B687A6813441A
:1006F0007B60FB680133FB60FB681D2BE8DD7B68DA
:100700001E2B02D1B868FFF705FEBB680133BB6042
:10071000BB683B2BD7DD0023FB600EE00E4AFB6875
:100720004FF4347101FB03F313445B68012B01D1D7
:10073000FFF7A4FEFB680133FB60FB681D2BEDDDBA
:100740000348012100F022FF1437BD4690BD00BFD1
:1007500000040040000C02402000002080B582B060
:1007600000AF4FF08040012100F0E6FE0346002B71
:100770003ED021484FF4804100F09CFB00233B60B9
:100780002EE000237B6025E01C483A687968134618
:100790005B0013449B004FF4347202FB01F21344DC
:1007A00003441B68012B12D17B68DAB23B68DBB2D1
:1007B0001046194601F05AF97B68DAB23B68DBB2A1
:1007C00010461946012201F027F801F0B5F87B68C0
:1007D00001337B607B681D2BD6DD3B6801333B60BA
:1007E0003B683B2BCDDD4FF08040012100F0CEFE79
:1007F0000837BD4680BD00BF000C0240200000202D
:1008000080B58CB000AF00F067FB4FF4C06000F023
:1008100071FC0820012100F0C5F80120012100F041
:10082000DFF84FF48040012100F0F8F802200121A8
:1008300000F0D6F80023BB6239E00023FB6230E011
:100840005548BA6AF96A13465B0013449B004FF49B
:10085000347202FB01F21344034400221A604E4832
:10086000BA6AF96A13465B0013449B004FF4347272
:1008700002FB01F213440344083300221A60464885
:10088000BA6AF96A13465B0013449B004FF4347252
:1008900002FB01F21344034400225A60FB6A013355
:1008A000FB62FB6A0E2BCBDDBB6A0133BB62BB6A0A
:1008B0003B2BC2DDFFF7F6FC40F247333B6240F2D0
:1008C000E733BB830023BB840023FB8307F11C03B6
:1008D0004FF08040194600F081FD42F2CF037B616A
:1008E00042F20F733B8200233B8300237B8207F19C
:1008F00010032A48194600F071FD4FF08040012195
:1009000000F0D6FD2548012100F0D2FD1C233B73E9
:1009100000237B730023BB730123FB7307F10C03DC
:10092000184600F0F9FB4FF08040012100F02EFE48
:100930004FF080400121012200F0DAFD1D233B72BF
:1009400000237B720023BB720123FB7207F10803B3
:10095000184600F0E1FB1148012100F017FE0F4896
:100960000121012200F0C4FD4FF470433B600123DC
:100970003B710023BB7101237B710023FB713B465C
:100980000748194600F0ECF9382000F0E9FE184657
:100990003037BD4680BD00BF20000020000400406D
:1009A000000C024080B483B000AF78600B46FB704F
:1009B000FB78002B06D00949084B1A6B7B68134360
:1009C0000B6306E00549054B1A6B7B68DB4313405C
:1009D0000B630C37BD465DF8047B7047003802405E
:1009E00080B483B000AF78600B46FB70FB78002BBF
:1009F00006D00949084B1A6C7B6813430B6406E068
:100A00000549054B1A6C7B68DB4313400B640C37BC
:100A1000BD465DF8047B70470038024080B483B067
:100A200000AF78600B46FB70FB78002B06D00949BD
:100A3000084B5A6C7B6813434B6406E00549054B31
:100A40005A6C7B68DB4313404B640C37BD465DF842
:100A5000047B70470038024080B584B002AF7860F4
:100A60000B46FB707B68194A93420BD1FA784FF41E
:100A7000827300930023019314481146002220231F
:100A800000F036F87B68124A93420BD1FA784FF4A3
:100A900082730093002301930D4811460022202306
:100AA00000F026F87B680B4A93420BD1FA784FF49A
:100AB00082730093002301930648114600222023ED
:100AC00000F016F80837BD4680BD00BF0030014079
:100AD00000380040003C004080B483B000AF786034
:100AE0000B467B800C37BD465DF8047B704700BF2A
:100AF00080B588B000AF7860084611461A460346B4
:100B0000FB700B46BB7013463B8007F10C03184685
:100B100000F0CCFA7B68394A93420BD1384A384B03
:100B20005B6C43F480535364FB78184600F06EF816
:100B300000233B827B68334A93420BD1304A304BCF
:100B40001B6C43F480431364FB78184600F08EF866
:100B500000233B827B682C4A93420BD1284A284BC6
:100B60001B6C43F400431364FB78184600F0C8F88C
:100B700000233B823B883B830023BB81BB8D7B836F
:100B80003B8DFB814FF40073FB82BB78002B04D1BB
:100B900000237B820023BB8216E0BB78012B04D1AB
:100BA00000237B820123BB820EE0BB78022B04D1A1
:100BB00002237B820023BB8206E0BB78032B03D198
:100BC00002237B820123BB827B681B889BB223F0BC
:100BD00040039AB27B681A8007F10C0378681946C3
:100BE00000F020FA7B681B889BB243F040039AB266
:100BF0007B681A802037BD4680BD00BF00300140B1
:100C00000038024000380040003C004080B584B00D
:100C100002AF0346FB71FB79002B09D1032300933C
:100C2000052301930E48E0210022002300F0D4FAAE
:100C3000FB79012B09D10323009305230193094874
:100C400038210022002300F0C7FAFB79032B03D1DF
:100C500005480521FFF740FF0837BD4680BD00BFAE
:100C600000000240000402400030014080B584B022
:100C700002AF0346FB71FB79002B14D103230093D1
:100C8000052301931A484FF480610022002300F0ED
:100C9000A3FA032300930523019316480C21002295
:100CA000002300F099FAFB79012B0AD1032300936A
:100CB000052301930E484FF460410022002300F009
:100CC0008BFAFB79022B09D10323009305230193AF
:100CD00009480D210022002300F07EFAFB79032B46
:100CE00003D106480521FFF7F7FE0837BD4680BD52
:100CF000000402400008024000200240003800408A
:100D000080B584B002AF0346FB71FB79002B09D19B
:100D100003230093062301930E4838210022002369
:100D200000F05AFAFB79012B0AD103230093062322
:100D3000019309484FF4E0510022002300F04CFADF
:100D4000FB79032B03D105480621FFF7C5FE0837C1
:100D5000BD4680BD0004024000080240003C004047
:100D600080B487B000AF7860396000237B610023D6
:100D70003B610023FB6000237B6176E07B690122FD
:100D800002FA03F33B613B681A683B691340FB605E
:100D9000FA683B699A4265D17B681A687B695B0097
:100DA000194603238B40DB431A407B681A607B683B
:100DB0001A683B681B7919467B695B0001FA03F3EB
:100DC0001A437B681A603B681B79012B03D03B6890
:100DD0001B79022B2ED17B689A687B695B001946D0
:100DE00003238B40DB431A407B689A607B689A68D8
:100DF0003B685B7919467B695B0001FA03F31A4390
:100E00007B689A607B685A687B699BB219460123AC
:100E10008B40DB431A407B685A607B685B683A68AA
:100E2000927911467A6992B201FA02F292B21A43A9
:100E30007B685A607B68DA687B699BB25B00032140
:100E400001FA03F3DB431A407B68DA607B68DA68F7
:100E50003B68DB7919467B695B0001FA03F31A43AF
:100E60007B68DA607B6901337B617B690F2B85D9F5
:100E70001C37BD465DF8047B704700BF80B483B06B
:100E800000AF78600B467B807B687A881A830C37CA
:100E9000BD465DF8047B704780B483B000AF7860D6
:100EA0000B467B807B687A885A830C37BD465DF899
:100EB000047B704780B483B000AF78600B467B80C2
:100EC0007B685A697B885A407B685A610C37BD46FB
:100ED0005DF8047B704700BF80B500AF114A114B2D
:100EE0001B6843F0010313600E4B00229A600D4A09
:100EF0000C4B1B6823F0847323F480331360094B7D
:100F0000094A5A60074A074B1B6823F48023136081
:100F1000044B0022DA6000F00BF8044B4FF0006243
:100F20009A6080BD003802401030002400ED00E0DF
:100F300080B483B000AF00237B6000233B60354A60
:100F4000344B1B6843F480331360324B1B6803F44B
:100F500000333B607B6801337B603B68002B03D12F
:100F60007B68B3F5A06FF0D12A4B1B6803F4003304
:100F7000002B02D001233B6001E000233B603B6873
:100F8000012B42D1234A234B1B6C43F08053136443
:100F9000214A214B1B6843F4804313601D4A1D4BBB
:100FA0009B6893601B4A1B4B9B6843F40043936010
:100FB000184A184B9B6843F4A0539360154B174A8B
:100FC0005A60144A134B1B6843F08073136000BFD0
:100FD000104B1B6803F00073002BF9D0104B40F24C
:100FE00005621A600B4A0B4B9B6823F00303936066
:100FF000084A084B9B6843F00203936000BF054B0F
:101000009B6803F00C03082BF9D10C37BD465DF843
:10101000047B7047003802400070004008544007CD
:10102000003C024080B485B000AF78603960002396
:10103000FB817B681B88FB81FB8903F44153FB81A7
:101040003B681A883B685B8813439AB23B689B886D
:1010500013439AB23B68DB8813439AB23B681B89FF
:1010600013439AB23B685B8913439AB23B689B89EE
:1010700013439AB23B68DB8913439AB2FB8913434B
:10108000FB817B68FA891A807B689B8B9BB223F477
:1010900000639AB27B689A833B681A8A7B681A82DB
:1010A0001437BD465DF8047B704700BF80B483B041
:1010B00000AF78607B6800221A807B6800225A802B
:1010C0007B6800229A807B680022DA807B6800229D
:1010D0001A817B6800225A817B6800229A817B6892
:1010E0000022DA817B6807221A820C37BD465DF840
:1010F000047B704780B483B000AF7860054A7B689A
:1011000043F0BF6343F40033D3600C37BD465DF852
:10111000047B704700ED00E080B485B000AF7860DC
:101120000023FB730023BB730F237B737B68DB7887
:10113000002B38D0264BDB68DB4303F4E0631B0A4B
:10114000FB73FB7BC3F10403BB737A7BFB7B42FA2B
:1011500003F37B737B685B781A46BB7B02FA03F36D
:10116000FB737B689A787B7B1340DAB2FB7B13437B
:10117000FB73FB7B1B01FB73164A7B681B781344D4
:10118000FA7B83F80023134A7B681B785B09DBB288
:1011900018467B681B7803F01F03012101FA03F353
:1011A00042F820300FE00B497B681B785B09DBB20B
:1011B00018467B681B7803F01F0301229A4000F158
:1011C000200341F823201437BD465DF8047B7047A7
:1011D00000ED00E000E100E090B587B002AF78607C
:1011E000084611461A4603467B800B467B70134621
:1011F0003B707B88002B00D13EE0786800F052F80D
:101200000023FB6028E07A88FB6842FA03F303F0CE
:101210000103002B00D11CE0FB68DA08FB68D90849
:101220007B68083153F82130F96801F00701890023
:1012300008460F218140C9430B4097F82410F868F5
:1012400000F007008000814019437B68083243F8B2
:101250002210FB680133FB60FB680F2BD3D97A881F
:101260007C783B78009397F820300193786811469A
:101270000222234600F02CF81437BD4690BD00BF73
:1012800080B483B000AF78607B6803F13F4303F51F
:101290007E039B0A9BB218460C37BD465DF8047B63
:1012A000704700BF80B582B000AF78607868FFF704
:1012B000E7FF03461A46012303FA02F1034A034BF0
:1012C0001B6B0B4313630837BD4680BD00380240DB
:1012D00080B584B000AF7860084611461A460346D0
:1012E0007B800B467B7013463B707868FFF7C8FF26
:1012F0000346BB730023FB7367E07A88FB7B42FAEB
:1013000003F303F00103002B00D15BE0BB7BBA7B4E
:10131000314931F8122090B2FA7B012101FA02F230
:1013200092B201460A4392B291B22B4A22F81310AC
:101330007B68DB68FA7B5200032101FA02F2D24398
:101340001340397EFA7B520001FA02F21A437B689D
:10135000DA607B681A68FB7B5B00032101FA03F308
:10136000DB4313407978FA7B520001FA02F21A4308
:101370007B681A607B78012B02D07B78022B21D10D
:101380007B685B68FA7B012101FA02F292B2D243D8
:1013900013403978FA7B01FA02F292B21A437B6861
:1013A0005A607B689A68FB7B5B00032101FA03F3B8
:1013B000DB431340397FFA7B520001FA02F21A43F1
:1013C0007B689A60FB7B0133FB73FB7B0F2B94D90B
:1013D0001037BD4680BD00BF0400002080B485B03A
:1013E00000AF786039600023FB817B681B88FB813C
:1013F0007B68284A934213D07B68274A93420FD0D8
:101400007B68B3F1804F0BD07B68244A934207D0AE
:101410007B68234A934203D07B68224A934208D1D7
:10142000FB8923F07003FB813B685A88FB891343D7
:10143000FB817B681C4A93420CD07B681B4A934219
:1014400008D0FB8923F44073FB813B681A89FB8930
:101450001343FB817B68FA891A803B685A687B6872
:10146000DA623B681A887B681A857B68094A93426E
:1014700003D07B68084A934204D13B689B7A9AB2B6
:101480007B681A867B6801229A821437BD465DF814
:10149000047B70470000014000040140000400404C
:1014A00000080040000C0040001000400014004004
:1014B00080B483B000AF78600B46FB70FB78002BE4
:1014C00008D07B681B889BB243F001039AB27B680B
:1014D0001A8007E07B681B889BB223F001039AB255
:1014E0007B681A800C37BD465DF8047B704700BFEF
:1014F00080B483B000AF78600B467B8013467B706E
:101500007B78002B08D07B689B899AB27B88134339
:101510009AB27B689A8109E07B689B899AB27B8842
:10152000DB439BB213409AB27B689A810C37BD466D
:101530005DF8047B704700BF80B485B000AF786071
:101540000B467B800023FB730023BB8100237B8140
:101550007B681B8A9AB27B881340BB817B689B891E
:101560009AB27B8813407B81BB89002B05D07B8995
:10157000002B02D00123FB7301E00023FB73FB7BF4
:1015800018461437BD465DF8047B704780B483B0BD
:1015900000AF78600B467B807B88DB439AB27B6828
:1015A0001A820C37BD465DF8047B704780B483B067
:1015B00000AF78600B46FB707B681B889BB203F022
:1015C0004003002B01D1002325E000BF7B681B896D
:1015D0009BB203F00303002BF8D07B681B899BB2FE
:1015E00003F08003002BF1D1FB789AB27B689A81DB
:1015F00000BF7B681B899BB203F00303002BF8D06C
:101600007B681B899BB203F08003002BF1D17B68C0
:101610009B899BB2DBB218460C37BD465DF8047B54
:10162000704700BF80B582B000AF04200121FFF7F2
:10163000B9F90023BB710023FB7103237B710123E4
:101640003B714FF400433B603B4612481946FFF79D
:1016500087FB4FF480433B603B460E481946FFF73B
:101660007FFB4FF400533B603B460A481946FFF7A7
:1016700077FB08484FF40041FFF700FC05484FF4A2
:101680000051FFF7FBFB04480021FFF7E5F908379D
:10169000BD4680BD000802400038004080B582B0E1
:1016A00000AF0346FB7109484FF40051FFF7F4FB0C
:1016B000FB7907481946FFF779FF04484FF40051BA
:1016C000FFF7DCFB0837BD4680BD00BF00080240C5
:1016D0000038004080B582B000AF03460A46FB7177
:1016E0001346BB71FB79012B02D0022B0FD01DE0FA
:1016F000BB79002B05D00F484FF48041FFF7BEFBAC
:1017000014E00C484FF48041FFF7C6FB0EE0BB79B4
:10171000002B05D007484FF40041FFF7AFFB04E072
:1017200004484FF40041FFF7B7FB00BF0837BD4640
:1017300080BD00BF0008024080B485B000AF786073
:101740000023FB6002E0FB680133FB60FA687B6802
:101750009A42F8D31437BD465DF8047B704700BF4A
:1017600080B582B000AF0346FB71FFF75BFF02203C
:101770000021FFF7AFFF42F21070FFF7DDFF0220FC
:101780000121FFF7A7FF0020212100F025F800200C
:10179000142100F021F8FB795BB2002B01DA7F23E2
:1017A000FB71FB7963F07F03DBB20020194600F088
:1017B00013F80020202100F00FF800200C2100F089
:1017C0000BF800F0ADF800200C2100F005F800F057
:1017D00081F80837BD4680BD80B582B000AF0346B2
:1017E0000A46FB711346BB71FB79002B07D0012B16
:1017F00000D009E001200121FFF76CFF04E0012087
:101800000021FFF767FF00BFBB791846FFF746FFCF
:101810000837BD4680BD00BF80B582B000AF03462B
:10182000FB710B46BB7113467B71FB79532B00D9BF
:101830004BE0BB792F2B00D947E07B79002B1ED0E2
:10184000FA79BB79DB08D8B20146542303FB01F3D4
:101850001344F979542202FB00F20A441C498A5CC1
:10186000D0B2BA7902F00702012101FA02F2D2B233
:1018700001460A43D2B2D1B2154AD1541FE0FA79D7
:10188000BB79DB08D8B20146542303FB01F31344B0
:10189000F979542202FB00F20A440D498A5CD0B265
:1018A000BA7902F00702012101FA02F2D2B2D24360
:1018B000D2B201460A40D2B2D1B2054AD154F87927
:1018C000B979FA79BB7900F095F80837BD4680BD43
:1018D0008454002080B582B000AF00F021F80023CE
:1018E0007B6007E00D4A7B68134400221A707B6816
:1018F00001337B607B68B3F5FC7FF3D300200021CC
:1019000000F0B4F80020002153222F2300F072F8D9
:1019100000F012F80837BD4680BD00BF8454002097
:1019200080B500AF00208021FFF756FF0020402146
:10193000FFF752FF80BD00BF80B582B000AF00232B
:10194000FB713BE0264B1B781A46FB790133DB0029
:101950009A4200DD2FE0FB79DB00224A12789342A5
:1019600000DD2EE0FB7943F04003DBB20020194696
:10197000FFF732FF1C4B1B7863F07F03DBB20020C4
:101980001946FFF729FF184B1B78BB710EE0FB7956
:10199000542202FB03F2BB791344144AD35C0120A6
:1019A0001946FFF719FFBB790133BB71104B1B7848
:1019B000BA799A42EBD9FB790133FB71FB79052B9C
:1019C000C0D9094B53221A70094B00221A70044BDC
:1019D0002F221A70034B00221A700837BD4680BDB3
:1019E0001C0000201D0000201A000020845400204C
:1019F0001B00002090B482B000AF04460846114698
:101A00001A462346FB710346BB710B467B71134696
:101A10003B71124B1B78FA799A4202D20F4AFB793A
:101A200013700F4B1B787A799A4202D90C4A7B7952
:101A300013700C4B1B78BA799A4202D2094ABB79CF
:101A40001370094B1B783A799A4202D9064A3B79BE
:101A500013700837BD4690BC704700BF1A000020C5
:101A60001B0000201C0000201D00002080B483B05B
:101A700000AF03460A46FB711346BB71054AFB796A
:101A80001370054ABB7913700C37BD465DF8047BB3
:0C1A9000704700BF8154002080540020EB
:0400000508000000EF
:00000001FF
