:020000040800F2
:10000000080A002089010008E5010008E501000850
:10001000E5010008E5010008E50100080000000016
:10002000000000000000000000000000E5010008E2
:10003000E501000800000000E5010008E5010008F6
:10004000E5010008E5010008E5010008E5010008F8
:10005000E5010008E5010008E5010008E5010008E8
:10006000E5010008E5010008E5010008E5010008D8
:10007000E5010008E5010008E5010008E5010008C8
:10008000E5010008E5010008E5010008E5010008B8
:10009000E5010008E5010008E5010008E5010008A8
:1000A000E5010008E5010008E5010008E501000898
:1000B000C106000845040008E5010008E501000844
:1000C000E5010008E5010008E5010008E501000878
:1000D000E5010008E5010008E5010008E501000868
:1000E000E5010008E5010008E5010008E501000858
:1000F000E5010008E5010008E5010008E501000848
:10010000E5010008E5010008E5010008E501000837
:10011000E5010008E5010008E5010008E501000827
:10012000E5010008E5010008E5010008E501000817
:10013000E5010008E5010008E5010008E501000807
:10014000E5010008E5010008E5010008E5010008F7
:10015000E5010008E5010008E5010008E5010008E7
:10016000E5010008E5010008E5010008E5010008D7
:10017000E5010008E5010008E5010008E5010008C7
:10018000E5010008E501000880B582B000AF104B22
:100190007B60104B3B6007E03B681A1D3A607A6851
:1001A000111D796012681A603B680B4A9342F3D3C1
:1001B0000A480B494FF000028842B8BF40F8042BB0
:1001C000FADB00F095FA00BF0837BD4680BD00BFDE
:1001D0004A15000800000020000000200000002058
:1001E0000402002080B400AFFEE700BF80B487B0F7
:1001F00000AF786000237B6126E000233B611DE0B7
:100200003B699B007A68134419687A6913465B005E
:1002100013449B000B449B68002B0CD03B699B0054
:100220007A68134419687A6913465B0013449B008B
:100230000B4401225A603B6901333B613B691D2B32
:10024000DEDD7B6901337B617B693B2BD5DD0023E0
:10025000FB6018E00023BB600FE0BB689B007A687E
:1002600013441968FA6813465B0013449B000B445F
:1002700000229A60BB680133BB60BB681D2BECDDBC
:10028000FB680133FB60FB683B2BE3DD00BF1C37E1
:10029000BD4680BC704700BF80B487B000AF7860B7
:1002A000396000237B612EE07B699B003A68134430
:1002B00019687A6813465B0013449B000B440022C4
:1002C0001A607B699B003A68134419687A68134680
:1002D0005B0013449B000B4400225A607B699B0027
:1002E0003A68134419687A6813465B0013449B000C
:1002F0000B4400229A60374B1B687833354A1360F1
:100300007B6901337B617B691D2BCDDD7B68013B04
:100310003B6156E00023FB604DE0FB689B003A68C0
:10032000134419683A6913465B0013449B0019444F
:10033000FB689B003A68134418683A6913465B00EF
:1003400013449B000C3B03441B680B60FB689B0041
:100350003A68134419683A6913465B0013449B00DA
:100360001944FB689B003A68134418683A691346BD
:100370005B0013449B000C3B03445B684B60FB68D1
:100380009B003A68134419683A6913465B001344AA
:100390009B001944FB689B003A68134418683A694B
:1003A00013465B0013449B000C3B03449B688B602B
:1003B000FB680133FB60FB681D2BAEDD3B69013B35
:1003C0003B613B69002BA5DC00BF1C37BD4680BCF0
:1003D000704700BF0000002080B400AF00BFBD46E2
:1003E00080BC704780B584B000AF78600023FB60AC
:1003F00021E00023BB6018E0BB689B007A681344CF
:100400001968FA6813465B0013449B000B441B6891
:10041000012B07D1BB68DBB2FA68D1B201221846C2
:1004200000F0AEFCBB680133BB60BB681D2BE3DD95
:10043000FB680133FB60FB683B2BDADD00BF103744
:10044000BD4680BD80B58AB000AF786001219B4871
:1004500000F024FB0346002B00F02B813B237B6242
:10046000E2E000233B6255E03B6A9B007A6813445C
:1004700019687A6A13465B0013449B000B445B685F
:10048000012B43D07B6A3B2B11D13B6A9B007A68DE
:10049000134419687A6A13465B0013449B000B44AB
:1004A0001B68012B03D17868FFF7A0FE2FE03B6AA1
:1004B0009B007A68134419687B6A5A1C13465B00D8
:1004C00013449B000B445B68012B20D13B6A9B00CB
:1004D0007A68134419687A6A13465B0013449B00D8
:1004E0000B441B68012B12D13B6A9B007A681344B2
:1004F00019687A6A13465B0013449B000B445B68DF
:10050000002B04D17868FFF771FE00E000BF3B6A62
:1005100001333B623B6A1D2BA6DD0023FB617CE0BF
:10052000FB699B007A68134419687A6A13465B007A
:1005300013449B000B441B68012B6BD1FB699B0090
:100540007A68134419687B6A5A1C13465B0013448B
:100550009B000B441B68002B5CD1FB699B007A68F5
:10056000134419687A6A13465B0013449B000B44DA
:100570005B68002B4ED1FB699B007A6813441968B5
:100580007A6A13465B0013449B000B4400221A60F6
:10059000FB699B007A68134419687B6A5A1C1346EE
:1005A0005B0013449B000B4401221A60FB699B0013
:1005B0007A68134419687B6A5A1C13465B0013441B
:1005C0009B000B4400225A60FB699B007A6813442D
:1005D00019687B6A5A1C13465B0013449B0019443C
:1005E000FB699B007A68134418687A6A13465B00BB
:1005F00013449B0003449B688B60FB699B007A68F3
:10060000134419687A6A13465B0013449B000B4439
:1006100000229A60FB690133FB61FB691D2B7FF7A8
:100620007FAF7B6A013B7B627B6A002BBFF619AF11
:100630000023BB6123E000237B6100233B6111E0C9
:100640003B699B007A6813441968BA6913465B00DA
:1006500013449B000B441B687A6913447B613B691C
:1006600001333B613B691D2BEADD7B691E2B03D106
:100670007968B869FFF710FEBB690133BB61BB69DC
:100680003B2BD8DD0023FB600CE0FB689B007A6805
:1006900013441B685B68012B01D1FFF79DFEFB68CB
:1006A0000133FB60FB681D2BEFDD0121034800F0E7
:1006B0001FFA00BF2837BD4680BD00BF00040040C0
:1006C00080B582B000AF786001214FF0804000F02B
:1006D000E5F90346002B07D07868FFF783FE012178
:1006E0004FF0804000F004FA00BF0837BD4680BDDF
:1006F00080B582B000AF00F029F90121082000F098
:1007000051F84FF470433B6001233B710023BB71F0
:1007100001237B710023FB713B4619461C4800F006
:100720006BF8382000F0CEFA382000F0CBFA032125
:100730000E2000F053FC00220021164800F012FDAC
:100740000D210F2000F04AFC00220121124800F088
:1007500009FD1A211E2000F041FC002200210F4853
:1007600000F000FD2A212D2000F038FC012201219B
:100770000B4800F0F7FC00F093FB4FF47041044885
:1007800000F0C8F8002318460837BD4680BD00BFFA
:10079000000C024098110008A4110008B0110008D4
:1007A000B811000880B483B000AF78600B46FB70CE
:1007B000FB78002B06D00949084B1A6B7B68134362
:1007C0000B6306E00549054B1A6B7B68DB4313405E
:1007D0000B6300BF0C37BD4680BC70470038024039
:1007E00080B483B000AF78600B46FB7000BF0C375D
:1007F000BD4680BC704700BF80B487B000AF786052
:10080000396000237B6100233B610023FB600023F0
:100810007B6176E001227B6902FA03F33B613B686E
:100820001A683B691340FB60FA683B699A4265D1DC
:100830007B681A687B695B00032101FA03F3DB43E1
:100840001A407B681A607B681A683B681B791946F6
:100850007B695B0001FA03F31A437B681A603B680B
:100860001B79012B03D03B681B79022B2ED17B68AF
:100870009A687B695B00032101FA03F3DB431A40AA
:100880007B689A607B689A683B685B7919467B69EC
:100890005B0001FA03F31A437B689A607B685A682D
:1008A0007B699BB2194601238B40DB431A407B686E
:1008B0005A607B685B683A68927911467A6992B2AD
:1008C00001FA02F292B21A437B685A607B68DA68D6
:1008D0007B699BB25B00032101FA03F3DB431A40FF
:1008E0007B68DA607B68DA683B68DB7919467B698C
:1008F0005B0001FA03F31A437B68DA607B6901331A
:100900007B617B690F2B85D900BF1C37BD4680BC3E
:10091000704700BF80B483B000AF78600B467B8027
:100920007B687A881A8300BF0C37BD4680BC70474D
:1009300080B483B000AF78600B467B807B687A8898
:100940005A8300BF0C37BD4680BC704780B500AFEE
:10095000124A124B1B6843F0010313600F4B002235
:100960009A600E4A0D4B1B6823F0847323F4803386
:1009700013600A4B0A4A5A60084A084B1B6823F462
:1009800080231360054B0022DA6000F00DF8054B60
:100990004FF000629A6000BF80BD00BF0038024087
:1009A0001030002400ED00E080B483B000AF0023DD
:1009B0007B6000233B60354A344B1B6843F4803333
:1009C0001360324B1B6803F400333B607B680133D8
:1009D0007B603B68002B03D17B68B3F5A06FF0D13F
:1009E0002A4B1B6803F40033002B02D001233B6029
:1009F00001E000233B603B68012B42D1234A234B9B
:100A00001B6C43F080531364214A214B1B6843F451
:100A1000804313601D4A1D4B9B6893601B4A1B4B10
:100A20009B6843F400439360184A184B9B6843F457
:100A3000A0539360154B174A5A60144A134B1B6816
:100A400043F08073136000BF104B1B6803F000730A
:100A5000002BF9D0104B40F205621A600B4A0B4B89
:100A60009B6823F003039360084A084B9B6843F09C
:100A70000203936000BF054B9B6803F00C03082B37
:100A8000F9D100BF0C37BD4680BC7047003802402A
:100A90000070004008544007003C024080B485B01C
:100AA00000AF78600B467B800023FB730023BB8183
:100AB00000237B817B681B8A9AB27B881340BB81B1
:100AC0007B689B899AB27B8813407B81BB89002B12
:100AD00005D07B89002B02D00123FB7301E00023AA
:100AE000FB73FB7B18461437BD4680BC704700BFC4
:100AF00080B483B000AF78600B467B807B88DB439B
:100B00009AB27B681A8200BF0C37BD4680BC704722
:100B100080B483B000AF78600B46FB707B681B88A5
:100B20009BB203F04003002B01D1002325E000BF5E
:100B30007B681B899BB203F00303002BF8D07B6812
:100B40001B899BB203F08003002BF1D1FB789AB292
:100B50007B689A8100BF7B681B899BB203F003030B
:100B6000002BF8D07B681B899BB203F08003002B1D
:100B7000F1D17B689B899BB2DBB218460C37BD462E
:100B800080BC704780B582B000AF01210420FFF720
:100B900009FE0023BB710023FB7103237B7101233A
:100BA0003B714FF400433B603B4619461248FFF748
:100BB00023FE4FF480433B603B4619460E48FFF747
:100BC0001BFE4FF400533B603B4619460A48FFF7B3
:100BD00013FE4FF400410848FFF79CFE4FF400510C
:100BE0000548FFF797FE00210448FFF7F9FD00BF15
:100BF0000837BD4680BD00BF0008024000380040F5
:100C000080B582B000AF0346FB714FF40051084835
:100C1000FFF78EFEFB7919460648FFF779FF4FF480
:100C200000510348FFF776FE00BF0837BD4680BD80
:100C3000000802400038004080B582B000AF034693
:100C40000A46FB711346BB71FB79012B02D0022BC4
:100C50000FD01DE0BB79002B05D04FF480410E482A
:100C6000FFF758FE14E04FF480410B48FFF760FE99
:100C70000EE0BB79002B05D04FF400410648FFF78A
:100C800049FE04E04FF400410348FFF751FE00BF66
:100C900000BF0837BD4680BD0008024080B485B063
:100CA00000AF78600023FB6002E0FB680133FB606B
:100CB000FA687B689A42F8D300BF1437BD4680BCFF
:100CC000704700BF80B582B000AF0346FB71FFF7ED
:100CD00059FF00210220FFF7AFFF42F21070FFF72B
:100CE000DDFF01210220FFF7A7FF2121002000F0F6
:100CF00027F81421002000F023F897F90730002B83
:100D000001DA7F23FB71FB7963F07F03DBB21946C5
:100D1000002000F015F82021002000F011F80C212F
:100D2000002000F00DF800F0AFF80C21002000F0DA
:100D300007F800F083F800BF0837BD4680BD00BF4C
:100D400080B582B000AF03460A46FB711346BB7103
:100D5000FB79002B07D0012B00D009E001210120F5
:100D6000FFF76AFF04E000210120FFF765FF00BFE5
:100D7000BB791846FFF744FF00BF0837BD4680BD6A
:100D800080B582B000AF0346FB710B46BB711346C2
:100D90007B71FB79532B49D8BB792F2B48D87B79B2
:100DA000002B1DD0FA79BB79DB08D8B20146542359
:100DB00003FB01F31344F979542202FB00F20A44C5
:100DC0001D498A5C51B2BA7902F00702012000FA8B
:100DD00002F252B20A4352B2D1B2174AD1541EE0C3
:100DE000FA79BB79DB08D8B20146542303FB01F33F
:100DF0001344F979542202FB00F20A440E498A5C3A
:100E000051B2BA7902F00702012000FA02F252B29E
:100E1000D24352B20A4052B2D1B2074AD154BB793E
:100E2000FA79B979F87900F09DF802E000BF00E0A6
:100E300000BF0837BD4680BD0C00002080B582B0E1
:100E400000AF00F021F800237B6007E00D4A7B68CB
:100E5000134400221A707B6801337B607B68B3F512
:100E6000FC7FF3D30021002000F0B8F82F23532299
:100E70000021002000F076F800F012F800BF0837DB
:100E8000BD4680BD0C00002080B500AF8021002051
:100E9000FFF756FF40210020FFF752FF00BF80BD43
:100EA00080B582B000AF0023FB713BE0284B1B787C
:100EB0001A46FB790133DB009A422FDCFB79DB0019
:100EC000244A1278934231DCFB7943F04003DBB2D1
:100ED00019460020FFF734FF1F4B1B7863F07F0398
:100EE000DBB219460020FFF72BFF1B4B1B78BB71B1
:100EF0000EE0FB79542202FB03F2BB791344174A3C
:100F0000D35C19460120FFF71BFFBB790133BB718E
:100F1000134B1B78BA799A42EBD900E000BFFB79FA
:100F20000133FB71FB79052BC0D900E000BF0A4BF0
:100F300053221A700A4B00221A70054B2F221A7086
:100F4000044B00221A7000BF0837BD4680BD00BFA9
:100F50000600002007000020040000200C000020F4
:100F60000500002090B482B000AF04460846114648
:100F70001A462346FB710346BB710B467B71134631
:100F80003B71124B1B78FA799A4202D20F4AFB79D5
:100F900013700F4B1B787A799A4202D90C4A7B79ED
:100FA00013700C4B1B78BA799A4202D2094ABB796A
:100FB0001370094B1B783A799A4202D9064A3B7959
:100FC000137000BF0837BD4690BC70470400002076
:100FD00005000020060000200700002080B483B038
:100FE00000AF03460A46FB711346BB71054AFB7905
:100FF0001370054ABB79137000BF0C37BD4680BC27
:10100000704700BF090000200800002080B584B0B0
:1010100000AF0346FB710B46BB7113467B717B79B6
:10102000012B04D10423BB730623FB7303E00623C7
:10103000BB730823FB73474B1B781A46BB7B1344D7
:10104000542B09DD444B1A78FB7B1344DAB2424B34
:101050001A70404B00221A7000237B736BE0FB79FF
:101060001F2B1CD97B79012B0CD1FB79A3F120021A
:10107000797B3A4813465B00134403440B441B78C6
:101080003B730CE0FB79A3F12002797B34481346D3
:101090005B0013445B0003440B441B783B733B7BB6
:1010A000002B05D1FB79002B02D0FB79202B3ED100
:1010B0000023FB7230E0BB79012B15D1254B18784A
:1010C000254B1A78FB7A1344D9B23A7BFB7A42FA61
:1010D00003F303F00103002B14BF01230023DBB251
:1010E0001A46FFF74DFE14E01A4B18781A4B1A787F
:1010F000FB7A1344D9B23A7BFB7A42FA03F303F04A
:101100000103002B0CBF01230023DBB21A46FFF7BB
:1011100037FEFB7A0133FB72FA7AFB7B9A42CAD321
:101120000C4B1B780133DAB20A4B1A7000E000BF97
:101130007B7B01337B737A7BBB7B013B9A428EDBEB
:10114000044B1B780133DAB2024B1A7000BF103720
:10115000BD4680BD09000020080000200C140008D6
:10116000C411000880B582B000AF78600B46FB70F8
:101170001346BB7008E07B685A1C7A601B78BA780B
:10118000F9781846FFF742FF7B681B78002BF2D1F5
:1011900000BF0837BD4680BD53544D33324634320C
:1011A00039000000446973636F766572790000004E
:1011B00032303134000000006D616A65726C652E5A
:1011C0006575000000000000000000002F00000016
:1011D000000700070000147F147F1400242A7F2AD0
:1011E00012003234081626003649552250000005F8
:1011F00003000000001C224100000041221C0000EE
:1012000014083E08140008083E080800000050308A
:10121000000010101010100000606000000020108E
:10122000080402003E5149453E0000427F40000054
:101230004261514946002141454B31001814127F4B
:1012400010002745454539003C4A494930000171A5
:1012500009050300364949493600064949291E0057
:101260000036360000000056360000000814224107
:101270000000141414141400004122140800020188
:1012800051090600324959513E007E1111117E006C
:101290007F49494936003E41414122007F41412278
:1012A0001C007F49494941007F09090901003E416D
:1012B00049497A007F0808087F0000417F4100000B
:1012C0002040413F01007F08142241007F40404000
:1012D00040007F020C027F007F0408107F003E4127
:1012E00041413E007F09090906003E4151215E004F
:1012F0007F091929460046494949310001017F010A
:1013000001003F4040403F001F2040201F003F4061
:1013100038403F0063140814630007087008070092
:10132000615149454300007F41410000552A552A3B
:1013300055000041417F00000402010204004040CA
:101340004040400000010204000020545454780042
:101350007F484444380038444444200038444448DA
:101360007F00385454541800087E090102000C52C2
:1013700052523E007F080404780000447D40000083
:101380002040443D00007F102844000000417F4081
:1013900000007C04180478007C08040478003844B9
:1013A000444438007C1414140800081414187C00F9
:1013B0007C0804040800485454542000043F44406E
:1013C00020003C4040207C001C2040201C003C4071
:1013D00030403C004428102844000C5050503C0041
:1013E0004464544C4400007F3E1C0800081C3E7FAF
:1013F0000000087C7E7C0800103E7E3E10003E3ED1
:101400003E3E3E00007F3E1C080000000000000041
:1014100017000300031F0A1F0A1F050904120F17F4
:101420001C000300000E11110E00050205040E043D
:101430001008000404040010000804021F111F1209
:101440001F101D151711151F07041F17151D1F1538
:101450001D01011F1F151F17151F000A00100A008C
:10146000040A110A0A0A110A040115030E15161EB0
:10147000051E1F150A0E11111F110E1F15151F0530
:10148000050E151D1F041F111F1108100F1F041B2F
:101490001F10101F061F1F0E1F0E110E1F05020E1C
:1014A000111E1F0D16121509011F010F100F07182D
:1014B000071F0C1F1B041B031C031915131F11000E
:1014C00002040800111F0201021010100102001A8C
:1014D000161C1F120C0C12120C121F0C1A16041ED2
:1014E0000506150F1F021C001D0010100D1F0C1209
:1014F000111F101E0E1E1E021C0C120C1E0A0404CC
:101500000A1E1C0202141E0A021F120E101E0E10CA
:101510000E1E1C1E120C1202141E1A1E16041B1183
:10152000001F00111B040406021F1F1F0000000003
:1015300000000000000000000000000000000000AB
:0A15400000000000000000000000A1
:0400000508000000EF
:00000001FF
